{
  "contractName": "DistributeEth",
  "abi": [
    {
      "constant": false,
      "inputs": [
        {
          "name": "sender",
          "type": "address"
        },
        {
          "name": "receiver",
          "type": "address"
        },
        {
          "name": "toSender",
          "type": "uint256"
        },
        {
          "name": "toReceiver",
          "type": "uint256"
        }
      ],
      "name": "execute",
      "outputs": [],
      "payable": false,
      "stateMutability": "nonpayable",
      "type": "function"
    }
  ],
  "bytecode": "0x6060604052341561000f57600080fd5b6101268061001e6000396000f300606060405260043610603e5763ffffffff7c01000000000000000000000000000000000000000000000000000000006000350416636142251c81146043575b600080fd5b3415604d57600080fd5b607873ffffffffffffffffffffffffffffffffffffffff60043581169060243516604435606435607a565b005b73ffffffffffffffffffffffffffffffffffffffff841682156108fc0283604051600060405180830381858888f19350505050151560b757600080fd5b73ffffffffffffffffffffffffffffffffffffffff831681156108fc0282604051600060405180830381858888f19350505050151560f457600080fd5b505050505600a165627a7a72305820efb992f73266a182d21ceb91c2847cd0541118392b3222d5cde0851758f8898b0029",
  "source": "pragma solidity ^0.4.19;\n\n\ncontract DistributeEth {\n    function execute(address sender, address receiver, uint256 toSender, uint256 toReceiver) public {\n        sender.transfer(toSender);\n        receiver.transfer(toReceiver);\n    }\n}\n",
  "sourcePath": "/Users/ukstv/Documents/Pro/Machinomy/machinomy-contracts/contracts/DistributeEth.sol",
  "compiler": {
    "name": "solc",
    "version": "0.4.19+commit.c4cbbb05.Emscripten.clang"
  },
  "schemaVersion": "2.0.0",
  "updatedAt": "2018-03-05T00:08:05.774Z"
}