{
  "contractName": "DistributeToken",
  "abi": [
    {
      "constant": false,
      "inputs": [
        {
          "name": "_token",
          "type": "address"
        },
        {
          "name": "sender",
          "type": "address"
        },
        {
          "name": "receiver",
          "type": "address"
        },
        {
          "name": "toSender",
          "type": "uint256"
        },
        {
          "name": "toReceiver",
          "type": "uint256"
        }
      ],
      "name": "execute",
      "outputs": [],
      "payable": false,
      "stateMutability": "nonpayable",
      "type": "function"
    }
  ],
  "bytecode": "0x6060604052341561000f57600080fd5b6101db8061001e6000396000f3006060604052600436106100275763ffffffff60e060020a6000350416633343a585811461002c575b600080fd5b341561003757600080fd5b61006a73ffffffffffffffffffffffffffffffffffffffff6004358116906024358116906044351660643560843561006c565b005b8473ffffffffffffffffffffffffffffffffffffffff811663a9059cbb868560006040516020015260405160e060020a63ffffffff851602815273ffffffffffffffffffffffffffffffffffffffff90921660048301526024820152604401602060405180830381600087803b15156100e457600080fd5b6102c65a03f115156100f557600080fd5b50505060405180519050151561010a57600080fd5b8073ffffffffffffffffffffffffffffffffffffffff1663a9059cbb858460006040516020015260405160e060020a63ffffffff851602815273ffffffffffffffffffffffffffffffffffffffff90921660048301526024820152604401602060405180830381600087803b151561018157600080fd5b6102c65a03f1151561019257600080fd5b5050506040518051905015156101a757600080fd5b5050505050505600a165627a7a72305820dfd32dcf01e2b25ee6a51b759d123117efd7b0f844c0cd731d9b9d2660f252220029",
  "source": "pragma solidity ^0.4.19;\n\nimport \"zeppelin-solidity/contracts/token/ERC20/StandardToken.sol\";\n\n\ncontract DistributeToken {\n    function execute(address _token, address sender, address receiver, uint256 toSender, uint256 toReceiver) public {\n        StandardToken token = StandardToken(_token);\n\n        require(token.transfer(sender, toSender));\n        require(token.transfer(receiver, toReceiver));\n    }\n}\n",
  "sourcePath": "/Users/ukstv/Documents/Pro/Machinomy/machinomy-contracts/contracts/DistributeToken.sol",
  "compiler": {
    "name": "solc",
    "version": "0.4.19+commit.c4cbbb05.Emscripten.clang"
  },
  "schemaVersion": "2.0.0",
  "updatedAt": "2018-03-05T00:32:33.200Z"
}