{
  "contractName": "Multisig",
  "abi": [
    {
      "constant": true,
      "inputs": [],
      "name": "sender",
      "outputs": [
        {
          "name": "",
          "type": "address"
        }
      ],
      "payable": false,
      "stateMutability": "view",
      "type": "function"
    },
    {
      "constant": true,
      "inputs": [],
      "name": "nonce",
      "outputs": [
        {
          "name": "",
          "type": "uint256"
        }
      ],
      "payable": false,
      "stateMutability": "view",
      "type": "function"
    },
    {
      "constant": true,
      "inputs": [],
      "name": "receiver",
      "outputs": [
        {
          "name": "",
          "type": "address"
        }
      ],
      "payable": false,
      "stateMutability": "view",
      "type": "function"
    },
    {
      "inputs": [
        {
          "name": "_sender",
          "type": "address"
        },
        {
          "name": "_receiver",
          "type": "address"
        }
      ],
      "payable": false,
      "stateMutability": "nonpayable",
      "type": "constructor"
    },
    {
      "payable": true,
      "stateMutability": "payable",
      "type": "fallback"
    },
    {
      "constant": false,
      "inputs": [
        {
          "name": "destination",
          "type": "address"
        },
        {
          "name": "value",
          "type": "uint256"
        },
        {
          "name": "data",
          "type": "bytes"
        },
        {
          "name": "op",
          "type": "uint8"
        },
        {
          "name": "senderSig",
          "type": "bytes"
        },
        {
          "name": "receiverSig",
          "type": "bytes"
        }
      ],
      "name": "execute",
      "outputs": [],
      "payable": false,
      "stateMutability": "nonpayable",
      "type": "function"
    },
    {
      "constant": true,
      "inputs": [
        {
          "name": "txHash",
          "type": "bytes32"
        }
      ],
      "name": "recoveryHash",
      "outputs": [
        {
          "name": "",
          "type": "bytes32"
        }
      ],
      "payable": false,
      "stateMutability": "pure",
      "type": "function"
    },
    {
      "constant": true,
      "inputs": [
        {
          "name": "destination",
          "type": "address"
        },
        {
          "name": "value",
          "type": "uint256"
        },
        {
          "name": "data",
          "type": "bytes"
        },
        {
          "name": "op",
          "type": "uint8"
        },
        {
          "name": "_nonce",
          "type": "uint256"
        }
      ],
      "name": "executionHash",
      "outputs": [
        {
          "name": "",
          "type": "bytes32"
        }
      ],
      "payable": false,
      "stateMutability": "view",
      "type": "function"
    }
  ],
  "bytecode": "0x6060604052341561000f57600080fd5b6040516040806108258339810160405280805191906020018051915050600160a060020a038216151561004157600080fd5b600160a060020a038116151561005657600080fd5b60018054600160a060020a03938416600160a060020a03199182161790915560028054929093169116179055610794806100916000396000f30060606040526004361061005e5763ffffffff60e060020a6000350416634a176d528114610060578063504a99e1146100e157806367e404ce146101d6578063affed0e014610205578063f7260d3e14610218578063fdb9db421461022b575b005b341561006b57600080fd5b6100cf60048035600160a060020a03169060248035919060649060443590810190830135806020601f820181900481020160405190810160405281815292919060208401838380828437509496505060ff8535169460200135935061024192505050565b60405190815260200160405180910390f35b34156100ec57600080fd5b61005e60048035600160a060020a03169060248035919060649060443590810190830135806020601f8201819004810201604051908101604052818152929190602084018383808284378201915050505050509190803560ff1690602001909190803590602001908201803590602001908080601f01602080910402602001604051908101604052818152929190602084018383808284378201915050505050509190803590602001908201803590602001908080601f01602080910402602001604051908101604052818152929190602084018383808284375094965061031f95505050505050565b34156101e157600080fd5b6101e9610550565b604051600160a060020a03909116815260200160405180910390f35b341561021057600080fd5b6100cf61055f565b341561022357600080fd5b6101e9610565565b341561023657600080fd5b6100cf600435610574565b60003086868686866040516c01000000000000000000000000600160a060020a03808916820283528716026014820152602881018590526048810184805190602001908083835b602083106102a75780518252601f199092019160209182019101610288565b6001836020036101000a03801982511681845116179092525050509190910190508360018111156102d457fe5b60ff167f010000000000000000000000000000000000000000000000000000000000000002815260010182815260200196505050505050506040518091039020905095945050505050565b600061033861033388888888600054610241565b610574565b905073__ECRecovery____________________________6319045a25828560006040516020015260405160e060020a63ffffffff851602815260048101838152604060248301908152909160440183818151815260200191508051906020019080838360005b838110156103b657808201518382015260200161039e565b50505050905090810190601f1680156103e35780820380516001836020036101000a031916815260200191505b50935050505060206040518083038186803b151561040057600080fd5b6102c65a03f4151561041157600080fd5b5050506040518051600154600160a060020a03908116911614905061043557600080fd5b73__ECRecovery____________________________6319045a25828460006040516020015260405160e060020a63ffffffff851602815260048101838152604060248301908152909160440183818151815260200191508051906020019080838360005b838110156104b1578082015183820152602001610499565b50505050905090810190601f1680156104de5780820380516001836020036101000a031916815260200191505b50935050505060206040518083038186803b15156104fb57600080fd5b6102c65a03f4151561050c57600080fd5b5050506040518051600254600160a060020a03908116911614905061053057600080fd5b61053c87878787610620565b151561054757600080fd5b50505050505050565b600154600160a060020a031681565b60005481565b600254600160a060020a031681565b600061057e610756565b6040805190810160405280601c81526020017f19457468657265756d205369676e6564204d6573736167653a0a333200000000815250905080836040518083805190602001908083835b602083106105e75780518252601f1990920191602091820191016105c8565b6001836020036101000a038019825116818451161790925250505091909101928352505060200190506040518091039020915050919050565b6000805460010181558082600181111561063657fe5b14156106bf5784600160a060020a0316848460405180828051906020019080838360005b8381101561067257808201518382015260200161065a565b50505050905090810190601f16801561069f5780820380516001836020036101000a031916815260200191505b5091505060006040518083038185876187965a03f192505050905061074e565b60018260018111156106cd57fe5b141561074e5784600160a060020a03168360405180828051906020019080838360005b838110156107085780820151838201526020016106f0565b50505050905090810190601f1680156107355780820380516001836020036101000a031916815260200191505b509150506000604051808303818561646e5a03f4925050505b949350505050565b602060405190810160405260008152905600a165627a7a7230582058f0d3114f2aef8bdc670fa6be785455b93beb14b0b0194f34b82bf0cb15f09f0029",
  "source": "pragma solidity ^0.4.19;\n\nimport \"zeppelin-solidity/contracts/ECRecovery.sol\";\nimport \"./IRegistry.sol\";\n\n\ncontract Multisig {\n    uint public nonce;\n    address public sender;\n    address public receiver;\n\n    enum Operation {\n        Call,\n        DelegateCall\n    }\n\n    function Multisig(address _sender, address _receiver) public {\n        require(_sender != address(0x0));\n        require(_receiver != address(0x0));\n        sender = _sender;\n        receiver = _receiver;\n    }\n\n    function () payable public {}\n\n    function execute(\n        address destination,\n        uint256 value,\n        bytes data,\n        Operation op,\n        bytes senderSig,\n        bytes receiverSig\n    ) public\n    {\n        bytes32 hash = recoveryHash(executionHash(destination, value, data, op, nonce));\n        require(sender == ECRecovery.recover(hash, senderSig));\n        require(receiver == ECRecovery.recover(hash, receiverSig));\n        require(transact(destination, value, data, op));\n    }\n\n    function recoveryHash(bytes32 txHash) public pure returns (bytes32) {\n        bytes memory prefix = \"\\x19Ethereum Signed Message:\\n32\";\n        return keccak256(prefix, txHash);\n    }\n\n    function executionHash(address destination, uint256 value, bytes data, Operation op, uint256 _nonce) public view returns (bytes32) {\n        return keccak256(\n            address(this),\n            destination,\n            value,\n            data,\n            op,\n            _nonce\n        );\n    }\n\n    function transact(address destination, uint256 value, bytes data, Operation op) internal returns (bool) {\n        nonce = nonce + 1;\n        if (op == Operation.Call) {\n            return destination.call.value(value)(data); // solium-disable-line security/no-call-value\n        } else if (op == Operation.DelegateCall) {\n            return destination.delegatecall(data); // solium-disable-line security/no-low-level-calls\n        }\n    }\n}\n",
  "sourcePath": "/Users/ukstv/Documents/Pro/Machinomy/machinomy-contracts/contracts/Multisig.sol",
  "compiler": {
    "name": "solc",
    "version": "0.4.19+commit.c4cbbb05.Emscripten.clang"
  },
  "schemaVersion": "2.0.0",
  "updatedAt": "2018-03-05T02:11:58.103Z"
}