{
  "contractName": "Proxy",
  "abi": [
    {
      "constant": false,
      "inputs": [
        {
          "name": "_registry",
          "type": "address"
        },
        {
          "name": "_destination",
          "type": "bytes32"
        },
        {
          "name": "value",
          "type": "uint256"
        },
        {
          "name": "data",
          "type": "bytes"
        }
      ],
      "name": "doCall",
      "outputs": [],
      "payable": false,
      "stateMutability": "nonpayable",
      "type": "function"
    },
    {
      "constant": false,
      "inputs": [
        {
          "name": "_registry",
          "type": "address"
        },
        {
          "name": "_destination",
          "type": "bytes32"
        },
        {
          "name": "data",
          "type": "bytes"
        }
      ],
      "name": "doDelegateCall",
      "outputs": [],
      "payable": false,
      "stateMutability": "nonpayable",
      "type": "function"
    }
  ],
  "bytecode": "0x6060604052341561000f57600080fd5b6103218061001e6000396000f30060606040526004361061004b5763ffffffff7c01000000000000000000000000000000000000000000000000000000006000350416637a95f37c8114610050578063ed4e53da146100ba575b600080fd5b341561005b57600080fd5b6100b860048035600160a060020a03169060248035916044359160849060643590810190830135806020601f8201819004810201604051908101604052818152929190602084018383808284375094965061011f95505050505050565b005b34156100c557600080fd5b6100b860048035600160a060020a03169060248035919060649060443590810190830135806020601f820181900481020160405190810160405281815292919060208401838380828437509496506101bb95505050505050565b600061012b8585610253565b905080600160a060020a0316838360405180828051906020019080838360005b8381101561016357808201518382015260200161014b565b50505050905090810190601f1680156101905780820380516001836020036101000a031916815260200191505b5091505060006040518083038185876187965a03f19250505015156101b457600080fd5b5050505050565b60006101c78484610253565b905080600160a060020a03168260405180828051906020019080838360005b838110156101fe5780820151838201526020016101e6565b50505050905090810190601f16801561022b5780820380516001836020036101000a031916815260200191505b509150506000604051808303818561646e5a03f4915050151561024d57600080fd5b50505050565b600082600160a060020a038116635c23bdf58484604051602001526040517c010000000000000000000000000000000000000000000000000000000063ffffffff84160281526004810191909152602401602060405180830381600087803b15156102bd57600080fd5b6102c65a03f115156102ce57600080fd5b5050506040518051925050600160a060020a03821615156102ee57600080fd5b50929150505600a165627a7a72305820ef8321e6704e5cd0c06b3af0c044d44378d610a43d2a95f38fe5ee224412726b0029",
  "source": "pragma solidity ^0.4.19;\n\nimport \"./IRegistry.sol\";\n\n\n// @title Proxy call via counterfactual address.\n// @dev This may really suck. TODO Check output types\ncontract Proxy {\n    function doCall(address _registry, bytes32 _destination, uint256 value, bytes data) public {\n        address destination = findDestination(_registry, _destination);\n        require(destination.call.value(value)(data)); // solium-disable-line security/no-call-value\n    }\n\n    function doDelegateCall(address _registry, bytes32 _destination, bytes data) public {\n        address destination = findDestination(_registry, _destination);\n        require(destination.delegatecall(data)); // solium-disable-line security/no-low-level-calls\n    }\n\n    function findDestination(address _registry, bytes32 _destination) internal view\n    returns (address destination) {\n        IRegistry registry = IRegistry(_registry);\n        destination = registry.resolve(_destination);\n        require(destination != address(0x0));\n    }\n}\n",
  "sourcePath": "/Users/ukstv/Documents/Pro/Machinomy/machinomy-contracts/contracts/Proxy.sol",
  "compiler": {
    "name": "solc",
    "version": "0.4.19+commit.c4cbbb05.Emscripten.clang"
  },
  "schemaVersion": "2.0.0",
  "updatedAt": "2018-03-04T22:59:14.894Z"
}