{
  "contractName": "PublicRegistry",
  "abi": [
    {
      "inputs": [],
      "payable": false,
      "stateMutability": "nonpayable",
      "type": "constructor"
    },
    {
      "anonymous": false,
      "inputs": [
        {
          "indexed": true,
          "name": "id",
          "type": "bytes32"
        },
        {
          "indexed": true,
          "name": "deployed",
          "type": "address"
        },
        {
          "indexed": true,
          "name": "owner",
          "type": "address"
        }
      ],
      "name": "DidDeploy",
      "type": "event"
    },
    {
      "constant": false,
      "inputs": [
        {
          "name": "_code",
          "type": "bytes"
        },
        {
          "name": "nonce",
          "type": "bytes32"
        }
      ],
      "name": "deploy",
      "outputs": [],
      "payable": false,
      "stateMutability": "nonpayable",
      "type": "function"
    },
    {
      "constant": true,
      "inputs": [
        {
          "name": "cfAddress",
          "type": "bytes32"
        }
      ],
      "name": "resolve",
      "outputs": [
        {
          "name": "",
          "type": "address"
        }
      ],
      "payable": false,
      "stateMutability": "view",
      "type": "function"
    },
    {
      "constant": true,
      "inputs": [
        {
          "name": "_code",
          "type": "bytes"
        },
        {
          "name": "nonce",
          "type": "bytes32"
        }
      ],
      "name": "counterfactualAddress",
      "outputs": [
        {
          "name": "",
          "type": "bytes32"
        }
      ],
      "payable": false,
      "stateMutability": "pure",
      "type": "function"
    }
  ],
  "bytecode": "0x6060604052341561000f57600080fd5b6102ad8061001e6000396000f3006060604052600436106100565763ffffffff7c01000000000000000000000000000000000000000000000000000000006000350416634af63f02811461005b5780635c23bdf5146100b0578063af3e3571146100ef575b600080fd5b341561006657600080fd5b6100ae60046024813581810190830135806020601f82018190048102016040519081016040528181529291906020840183838082843750949650509335935061015492505050565b005b34156100bb57600080fd5b6100c66004356101ed565b60405173ffffffffffffffffffffffffffffffffffffffff909116815260200160405180910390f35b34156100fa57600080fd5b61014260046024813581810190830135806020601f82018190048102016040519081016040528181529291906020840183838082843750949650509335935061021592505050565b60405190815260200160405180910390f35b6000808351602085016000f0915061016c8484610215565b60008181526020819052604090819020805473ffffffffffffffffffffffffffffffffffffffff191673ffffffffffffffffffffffffffffffffffffffff8681169182179092559293503316919083907f497f4bc29e7a92c64237620fb7e41e94827e95558d9c20111729ae7dabc0d566905160405180910390a450505050565b60009081526020819052604090205473ffffffffffffffffffffffffffffffffffffffff1690565b600082826040518083805190602001908083835b602083106102485780518252601f199092019160209182019101610229565b6001836020036101000a0380198251168184511617909252505050919091019283525050602001905060405180910390209050929150505600a165627a7a72305820c53d86602883be43dbb2ad1725684257b1ad07716e950a400bbc9237898b0eab0029",
  "source": "pragma solidity ^0.4.19;\n\nimport \"./IRegistry.sol\";\n\n\ncontract PublicRegistry is IRegistry {\n    mapping (bytes32 => address) _contracts;\n\n    function PublicRegistry() public {\n        // Do Nothing\n    }\n\n    function deploy(bytes _code, bytes32 nonce) public {\n        address realAddress;\n        // solium-disable-next-line security/no-inline-assembly\n        assembly {\n            realAddress := create(0, add(_code, 0x20), mload(_code))\n        }\n        bytes32 cfAddress = counterfactualAddress(_code, nonce);\n        _contracts[cfAddress] = realAddress;\n\n        DidDeploy(cfAddress, realAddress, msg.sender);\n    }\n\n    function resolve(bytes32 cfAddress) public view returns (address) {\n        return _contracts[cfAddress];\n    }\n\n    function counterfactualAddress(bytes _code, bytes32 nonce) public pure returns (bytes32) {\n        return keccak256(_code, nonce);\n    }\n}\n",
  "sourcePath": "/Users/ukstv/Documents/Pro/Machinomy/machinomy-contracts/contracts/PublicRegistry.sol",
  "compiler": {
    "name": "solc",
    "version": "0.4.19+commit.c4cbbb05.Emscripten.clang"
  },
  "schemaVersion": "1.0.1",
  "updatedAt": "2018-03-04T02:34:39.688Z"
}