{
  "contractName": "TestContract",
  "abi": [
    {
      "constant": true,
      "inputs": [],
      "name": "nonce",
      "outputs": [
        {
          "name": "",
          "type": "uint256"
        }
      ],
      "payable": false,
      "stateMutability": "view",
      "type": "function"
    },
    {
      "inputs": [
        {
          "name": "_nonce",
          "type": "uint256"
        }
      ],
      "payable": false,
      "stateMutability": "nonpayable",
      "type": "constructor"
    },
    {
      "payable": true,
      "stateMutability": "payable",
      "type": "fallback"
    },
    {
      "anonymous": false,
      "inputs": [
        {
          "indexed": false,
          "name": "nonce",
          "type": "uint256"
        }
      ],
      "name": "DidUpdate",
      "type": "event"
    },
    {
      "constant": false,
      "inputs": [
        {
          "name": "_nonce",
          "type": "uint256"
        }
      ],
      "name": "updateNonce",
      "outputs": [],
      "payable": true,
      "stateMutability": "payable",
      "type": "function"
    }
  ],
  "bytecode": "0x6060604052341561000f57600080fd5b60405160208061011783398101604052808051600055505060e2806100356000396000f30060606040526004361060485763ffffffff7c01000000000000000000000000000000000000000000000000000000006000350416636d7a3ac88114604a578063affed0e0146053575b005b60486004356075565b3415605d57600080fd5b606360b0565b60405190815260200160405180910390f35b60008190557fc4e82f3c2d01f9be9b665555c3bf2a81d1f8833caf554de408c250d9e64836548160405190815260200160405180910390a150565b600054815600a165627a7a72305820eb535281808ba8586ff00ae2762fd371c60b4beaf334471ac860b69c44d52a5d0029",
  "source": "pragma solidity ^0.4.19;\n\nimport \"zeppelin-solidity/contracts/token/ERC20/StandardToken.sol\";\n\ncontract TestContract {\n    uint256 public nonce;\n\n    event DidUpdate(uint256 nonce);\n\n    function TestContract(uint256 _nonce) public {\n        nonce = _nonce;\n    }\n\n    function () payable public {}\n\n    function updateNonce(uint256 _nonce) payable public {\n        nonce = _nonce;\n        DidUpdate(nonce);\n    }\n}\n",
  "sourcePath": "/Users/ukstv/Documents/Pro/Machinomy/machinomy-contracts/contracts/TestContract.sol",
  "compiler": {
    "name": "solc",
    "version": "0.4.19+commit.c4cbbb05.Emscripten.clang"
  },
  "schemaVersion": "2.0.0",
  "updatedAt": "2018-03-04T22:26:23.198Z"
}