{
  "contractName": "TransferToken",
  "abi": [
    {
      "constant": false,
      "inputs": [
        {
          "name": "_registry",
          "type": "address"
        },
        {
          "name": "_token",
          "type": "address"
        },
        {
          "name": "_destination",
          "type": "bytes32"
        },
        {
          "name": "amount",
          "type": "uint256"
        }
      ],
      "name": "execute",
      "outputs": [],
      "payable": false,
      "stateMutability": "nonpayable",
      "type": "function"
    }
  ],
  "bytecode": "0x6060604052341561000f57600080fd5b6101d78061001e6000396000f3006060604052600436106100275763ffffffff60e060020a6000350416634a52c6a2811461002c575b600080fd5b341561003757600080fd5b61006473ffffffffffffffffffffffffffffffffffffffff60043581169060243516604435606435610066565b005b8360008073ffffffffffffffffffffffffffffffffffffffff8316635c23bdf586836040516020015260405160e060020a63ffffffff84160281526004810191909152602401602060405180830381600087803b15156100c557600080fd5b6102c65a03f115156100d657600080fd5b505050604051805192505073ffffffffffffffffffffffffffffffffffffffff8216151561010357600080fd5b508473ffffffffffffffffffffffffffffffffffffffff811663a9059cbb838660006040516020015260405160e060020a63ffffffff851602815273ffffffffffffffffffffffffffffffffffffffff90921660048301526024820152604401602060405180830381600087803b151561017c57600080fd5b6102c65a03f1151561018d57600080fd5b5050506040518051905015156101a257600080fd5b505050505050505600a165627a7a7230582009d0871e348b0e435feaba428594358400e74bd9affcecf4faa91a02096b18030029",
  "source": "pragma solidity ^0.4.19;\n\nimport \"./IRegistry.sol\";\nimport \"zeppelin-solidity/contracts/token/ERC20/StandardToken.sol\";\n\n\n// @title Proxy call via counterfactual address.\ncontract TransferToken {\n    function execute(address _registry, address _token, bytes32 _destination, uint256 amount) public {\n        IRegistry registry = IRegistry(_registry);\n        address destination = registry.resolve(_destination);\n        require(destination != address(0x0));\n\n        StandardToken token = StandardToken(_token);\n        require(token.transfer(destination, amount));\n    }\n}\n",
  "sourcePath": "/Users/ukstv/Documents/Pro/Machinomy/machinomy-contracts/contracts/TransferToken.sol",
  "compiler": {
    "name": "solc",
    "version": "0.4.19+commit.c4cbbb05.Emscripten.clang"
  },
  "schemaVersion": "2.0.0",
  "updatedAt": "2018-03-05T00:08:05.776Z"
}