{
  "contractName": "Unidirectional",
  "abi": [
    {
      "constant": true,
      "inputs": [
        {
          "name": "channelId",
          "type": "bytes32"
        }
      ],
      "name": "isPresent",
      "outputs": [
        {
          "name": "",
          "type": "bool"
        }
      ],
      "payable": false,
      "stateMutability": "view",
      "type": "function"
    },
    {
      "constant": true,
      "inputs": [
        {
          "name": "channelId",
          "type": "bytes32"
        },
        {
          "name": "payment",
          "type": "uint256"
        }
      ],
      "name": "signatureDigest",
      "outputs": [
        {
          "name": "",
          "type": "bytes32"
        }
      ],
      "payable": false,
      "stateMutability": "view",
      "type": "function"
    },
    {
      "constant": true,
      "inputs": [
        {
          "name": "channelId",
          "type": "bytes32"
        },
        {
          "name": "origin",
          "type": "address"
        }
      ],
      "name": "canDeposit",
      "outputs": [
        {
          "name": "",
          "type": "bool"
        }
      ],
      "payable": false,
      "stateMutability": "view",
      "type": "function"
    },
    {
      "constant": true,
      "inputs": [
        {
          "name": "channelId",
          "type": "bytes32"
        },
        {
          "name": "payment",
          "type": "uint256"
        }
      ],
      "name": "paymentDigest",
      "outputs": [
        {
          "name": "",
          "type": "bytes32"
        }
      ],
      "payable": false,
      "stateMutability": "view",
      "type": "function"
    },
    {
      "constant": true,
      "inputs": [
        {
          "name": "channelId",
          "type": "bytes32"
        },
        {
          "name": "origin",
          "type": "address"
        }
      ],
      "name": "canStartSettling",
      "outputs": [
        {
          "name": "",
          "type": "bool"
        }
      ],
      "payable": false,
      "stateMutability": "view",
      "type": "function"
    },
    {
      "constant": true,
      "inputs": [
        {
          "name": "channelId",
          "type": "bytes32"
        }
      ],
      "name": "isSettling",
      "outputs": [
        {
          "name": "",
          "type": "bool"
        }
      ],
      "payable": false,
      "stateMutability": "view",
      "type": "function"
    },
    {
      "constant": false,
      "inputs": [
        {
          "name": "channelId",
          "type": "bytes32"
        },
        {
          "name": "payment",
          "type": "uint256"
        },
        {
          "name": "signature",
          "type": "bytes"
        }
      ],
      "name": "claim",
      "outputs": [],
      "payable": false,
      "stateMutability": "nonpayable",
      "type": "function"
    },
    {
      "constant": true,
      "inputs": [
        {
          "name": "",
          "type": "bytes32"
        }
      ],
      "name": "channels",
      "outputs": [
        {
          "name": "sender",
          "type": "address"
        },
        {
          "name": "receiver",
          "type": "address"
        },
        {
          "name": "value",
          "type": "uint256"
        },
        {
          "name": "settlingPeriod",
          "type": "uint32"
        },
        {
          "name": "settlingUntil",
          "type": "uint256"
        }
      ],
      "payable": false,
      "stateMutability": "view",
      "type": "function"
    },
    {
      "constant": true,
      "inputs": [
        {
          "name": "channelId",
          "type": "bytes32"
        }
      ],
      "name": "isOpen",
      "outputs": [
        {
          "name": "",
          "type": "bool"
        }
      ],
      "payable": false,
      "stateMutability": "view",
      "type": "function"
    },
    {
      "constant": false,
      "inputs": [
        {
          "name": "channelId",
          "type": "bytes32"
        }
      ],
      "name": "settle",
      "outputs": [],
      "payable": false,
      "stateMutability": "nonpayable",
      "type": "function"
    },
    {
      "constant": false,
      "inputs": [
        {
          "name": "channelId",
          "type": "bytes32"
        }
      ],
      "name": "deposit",
      "outputs": [],
      "payable": true,
      "stateMutability": "payable",
      "type": "function"
    },
    {
      "constant": false,
      "inputs": [
        {
          "name": "channelId",
          "type": "bytes32"
        },
        {
          "name": "receiver",
          "type": "address"
        },
        {
          "name": "settlingPeriod",
          "type": "uint32"
        }
      ],
      "name": "open",
      "outputs": [],
      "payable": true,
      "stateMutability": "payable",
      "type": "function"
    },
    {
      "constant": true,
      "inputs": [
        {
          "name": "channelId",
          "type": "bytes32"
        },
        {
          "name": "origin",
          "type": "address"
        }
      ],
      "name": "canSettle",
      "outputs": [
        {
          "name": "",
          "type": "bool"
        }
      ],
      "payable": false,
      "stateMutability": "view",
      "type": "function"
    },
    {
      "constant": false,
      "inputs": [
        {
          "name": "channelId",
          "type": "bytes32"
        }
      ],
      "name": "startSettling",
      "outputs": [],
      "payable": false,
      "stateMutability": "nonpayable",
      "type": "function"
    },
    {
      "constant": true,
      "inputs": [
        {
          "name": "channelId",
          "type": "bytes32"
        },
        {
          "name": "payment",
          "type": "uint256"
        },
        {
          "name": "origin",
          "type": "address"
        },
        {
          "name": "signature",
          "type": "bytes"
        }
      ],
      "name": "canClaim",
      "outputs": [
        {
          "name": "",
          "type": "bool"
        }
      ],
      "payable": false,
      "stateMutability": "view",
      "type": "function"
    },
    {
      "anonymous": false,
      "inputs": [
        {
          "indexed": true,
          "name": "channelId",
          "type": "bytes32"
        }
      ],
      "name": "DidOpen",
      "type": "event"
    },
    {
      "anonymous": false,
      "inputs": [
        {
          "indexed": true,
          "name": "channelId",
          "type": "bytes32"
        },
        {
          "indexed": false,
          "name": "deposit",
          "type": "uint256"
        }
      ],
      "name": "DidDeposit",
      "type": "event"
    },
    {
      "anonymous": false,
      "inputs": [
        {
          "indexed": true,
          "name": "channelId",
          "type": "bytes32"
        }
      ],
      "name": "DidClaim",
      "type": "event"
    },
    {
      "anonymous": false,
      "inputs": [
        {
          "indexed": true,
          "name": "channelId",
          "type": "bytes32"
        }
      ],
      "name": "DidStartSettling",
      "type": "event"
    },
    {
      "anonymous": false,
      "inputs": [
        {
          "indexed": true,
          "name": "channelId",
          "type": "bytes32"
        }
      ],
      "name": "DidSettle",
      "type": "event"
    }
  ],
  "bytecode": "0x6060604052341561000f57600080fd5b6112b98061001e6000396000f3006060604052600436106100da576000357c0100000000000000000000000000000000000000000000000000000000900463ffffffff168062f31e76146100df578063276bef091461011e5780632f8f0c921461016a57806341b6fcf7146101c85780634722361c146102145780636683f9ae146102725780637964ea87146102b15780637a7ebd7b146103245780637c35be7a146103df578063987757dd1461041e578063b214faa514610445578063ba6cc6c314610461578063e036354e146104ab578063e62eea4714610509578063ec8be5b914610530575b600080fd5b34156100ea57600080fd5b6101046004808035600019169060200190919050506105da565b604051808215151515815260200191505060405180910390f35b341561012957600080fd5b61014c600480803560001916906020019091908035906020019091905050610640565b60405180826000191660001916815260200191505060405180910390f35b341561017557600080fd5b6101ae60048080356000191690602001909190803573ffffffffffffffffffffffffffffffffffffffff16906020019091905050610707565b604051808215151515815260200191505060405180910390f35b34156101d357600080fd5b6101f6600480803560001916906020019091908035906020019091905050610799565b60405180826000191660001916815260200191505060405180910390f35b341561021f57600080fd5b61025860048080356000191690602001909190803573ffffffffffffffffffffffffffffffffffffffff1690602001909190505061080c565b604051808215151515815260200191505060405180910390f35b341561027d57600080fd5b61029760048080356000191690602001909190505061089e565b604051808215151515815260200191505060405180910390f35b34156102bc57600080fd5b61032260048080356000191690602001909190803590602001909190803590602001908201803590602001908080601f016020809104026020016040519081016040528093929190818152602001838380828437820191505050505050919050506108ce565b005b341561032f57600080fd5b610349600480803560001916906020019091905050610b25565b604051808673ffffffffffffffffffffffffffffffffffffffff1673ffffffffffffffffffffffffffffffffffffffff1681526020018573ffffffffffffffffffffffffffffffffffffffff1673ffffffffffffffffffffffffffffffffffffffff1681526020018481526020018363ffffffff1663ffffffff1681526020018281526020019550505050505060405180910390f35b34156103ea57600080fd5b610404600480803560001916906020019091905050610bab565b604051808215151515815260200191505060405180910390f35b341561042957600080fd5b610443600480803560001916906020019091905050610bcf565b005b61045f600480803560001916906020019091905050610d31565b005b6104a960048080356000191690602001909190803573ffffffffffffffffffffffffffffffffffffffff1690602001909190803563ffffffff16906020019091905050610db0565b005b34156104b657600080fd5b6104ef60048080356000191690602001909190803573ffffffffffffffffffffffffffffffffffffffff16906020019091905050610f27565b604051808215151515815260200191505060405180910390f35b341561051457600080fd5b61052e600480803560001916906020019091905050610fdf565b005b341561053b57600080fd5b6105c060048080356000191690602001909190803590602001909190803573ffffffffffffffffffffffffffffffffffffffff1690602001909190803590602001908201803590602001908080601f0160208091040260200160405190810160405280939291908181526020018383808284378201915050505050509190505061106c565b604051808215151515815260200191505060405180910390f35b6000806000808460001916600019168152602001908152602001600020905060008160000160009054906101000a900473ffffffffffffffffffffffffffffffffffffffff1673ffffffffffffffffffffffffffffffffffffffff161415915050919050565b600061064a611279565b6040805190810160405280601c81526020017f19457468657265756d205369676e6564204d6573736167653a0a33320000000081525090508061068d8585610799565b6040518083805190602001908083835b6020831015156106c2578051825260208201915060208101905060208303925061069d565b6001836020036101000a038019825116818451168082178552505050505050905001826000191660001916815260200192505050604051809103902091505092915050565b6000806000806000866000191660001916815260200190815260200160002091508373ffffffffffffffffffffffffffffffffffffffff168260000160009054906101000a900473ffffffffffffffffffffffffffffffffffffffff1673ffffffffffffffffffffffffffffffffffffffff1614905061078685610bab565b801561078f5750805b9250505092915050565b6000308383604051808473ffffffffffffffffffffffffffffffffffffffff1673ffffffffffffffffffffffffffffffffffffffff166c01000000000000000000000000028152601401836000191660001916815260200182815260200193505050506040518091039020905092915050565b6000806000806000866000191660001916815260200190815260200160002091508373ffffffffffffffffffffffffffffffffffffffff168260000160009054906101000a900473ffffffffffffffffffffffffffffffffffffffff1673ffffffffffffffffffffffffffffffffffffffff1614905061088b85610bab565b80156108945750805b9250505092915050565b60008060008084600019166000191681526020019081526020016000209050600081600401541415915050919050565b60006108dc8484338561106c565b15156108e757600080fd5b6000808560001916600019168152602001908152602001600020905080600201548310151561097d578060010160009054906101000a900473ffffffffffffffffffffffffffffffffffffffff1673ffffffffffffffffffffffffffffffffffffffff166108fc82600201549081150290604051600060405180830381858888f19350505050151561097857600080fd5b610a5c565b8060010160009054906101000a900473ffffffffffffffffffffffffffffffffffffffff1673ffffffffffffffffffffffffffffffffffffffff166108fc849081150290604051600060405180830381858888f1935050505015156109e157600080fd5b8060000160009054906101000a900473ffffffffffffffffffffffffffffffffffffffff1673ffffffffffffffffffffffffffffffffffffffff166108fc610a3685846002015461126090919063ffffffff16565b9081150290604051600060405180830381858888f193505050501515610a5b57600080fd5b5b6000808560001916600019168152602001908152602001600020600080820160006101000a81549073ffffffffffffffffffffffffffffffffffffffff02191690556001820160006101000a81549073ffffffffffffffffffffffffffffffffffffffff021916905560028201600090556003820160006101000a81549063ffffffff02191690556004820160009055505083600019167f3de43c9e481138453c3cfea2781e18a609abb6448556669b257edc7de710fd6460405160405180910390a250505050565b60006020528060005260406000206000915090508060000160009054906101000a900473ffffffffffffffffffffffffffffffffffffffff16908060010160009054906101000a900473ffffffffffffffffffffffffffffffffffffffff16908060020154908060030160009054906101000a900463ffffffff16908060040154905085565b6000610bb6826105da565b8015610bc85750610bc68261089e565b155b9050919050565b6000610bdb8233610f27565b1515610be657600080fd5b600080836000191660001916815260200190815260200160002090508060000160009054906101000a900473ffffffffffffffffffffffffffffffffffffffff1673ffffffffffffffffffffffffffffffffffffffff166108fc82600201549081150290604051600060405180830381858888f193505050501515610c6a57600080fd5b6000808360001916600019168152602001908152602001600020600080820160006101000a81549073ffffffffffffffffffffffffffffffffffffffff02191690556001820160006101000a81549073ffffffffffffffffffffffffffffffffffffffff021916905560028201600090556003820160006101000a81549063ffffffff02191690556004820160009055505081600019167f74fb75c3de2cff5e8a78cf9b1f49a5bea60126b42ed45bb4b2b25b7da03e4d1b60405160405180910390a25050565b610d3b8133610707565b1515610d4657600080fd5b3460008083600019166000191681526020019081526020016000206002016000828254019250508190555080600019167f6f850cda6d6b2f5cca622bc2d4739e4ed917c12d29f9a92b9e6c127abe398424346040518082815260200191505060405180910390a250565b60a0604051908101604052803373ffffffffffffffffffffffffffffffffffffffff1681526020018373ffffffffffffffffffffffffffffffffffffffff1681526020013481526020018263ffffffff1681526020016000815250600080856000191660001916815260200190815260200160002060008201518160000160006101000a81548173ffffffffffffffffffffffffffffffffffffffff021916908373ffffffffffffffffffffffffffffffffffffffff16021790555060208201518160010160006101000a81548173ffffffffffffffffffffffffffffffffffffffff021916908373ffffffffffffffffffffffffffffffffffffffff1602179055506040820151816002015560608201518160030160006101000a81548163ffffffff021916908363ffffffff1602179055506080820151816004015590505082600019167f3acaf6c81b0902ff892efc6d8b28af3c95b986755aeddf843449789733f92c5360405160405180910390a2505050565b600080600080600080876000191660001916815260200190815260200160002092508473ffffffffffffffffffffffffffffffffffffffff168360000160009054906101000a900473ffffffffffffffffffffffffffffffffffffffff1673ffffffffffffffffffffffffffffffffffffffff1614915082600401544310158015610fb75750610fb68661089e565b5b9050818015610fcb5750610fca8661089e565b5b8015610fd45750805b935050505092915050565b6000610feb823361080c565b1515610ff657600080fd5b600080836000191660001916815260200190815260200160002090508060030160009054906101000a900463ffffffff1663ffffffff164301816004018190555081600019167fd6461a3a92fd600fe23f236b2e25c2fd0c197a66b2f990989f0b210d578f461760405160405180910390a25050565b60008060008060008060008a6000191660001916815260200190815260200160002093508360010160009054906101000a900473ffffffffffffffffffffffffffffffffffffffff1673ffffffffffffffffffffffffffffffffffffffff168773ffffffffffffffffffffffffffffffffffffffff161492506110ef8989610640565b915073__ECRecovery____________________________6319045a2583886000604051602001526040518363ffffffff167c010000000000000000000000000000000000000000000000000000000002815260040180836000191660001916815260200180602001828103825283818151815260200191508051906020019080838360005b8381101561118f578082015181840152602081019050611174565b50505050905090810190601f1680156111bc5780820380516001836020036101000a031916815260200191505b50935050505060206040518083038186803b15156111d957600080fd5b6102c65a03f415156111ea57600080fd5b5050506040518051905073ffffffffffffffffffffffffffffffffffffffff168460000160009054906101000a900473ffffffffffffffffffffffffffffffffffffffff1673ffffffffffffffffffffffffffffffffffffffff161490508280156112525750805b945050505050949350505050565b600082821115151561126e57fe5b818303905092915050565b6020604051908101604052806000815250905600a165627a7a72305820a0961b4576d1ef3982ad813d07e692b115dacf52100f8059b01a3d10f4a6cad70029",
  "source": "pragma solidity ^0.4.18;\n\nimport \"zeppelin-solidity/contracts/math/SafeMath.sol\";\nimport \"zeppelin-solidity/contracts/ECRecovery.sol\";\n\n\ncontract Unidirectional {\n    using SafeMath for uint256;\n\n    struct PaymentChannel {\n        address sender;\n        address receiver;\n        uint256 value;\n\n        uint32 settlingPeriod;\n        uint256 settlingUntil;\n    }\n\n    mapping (bytes32 => PaymentChannel) public channels;\n\n    event DidOpen(bytes32 indexed channelId);\n    event DidDeposit(bytes32 indexed channelId, uint256 deposit);\n    event DidClaim(bytes32 indexed channelId);\n    event DidStartSettling(bytes32 indexed channelId);\n    event DidSettle(bytes32 indexed channelId);\n\n    function open(bytes32 channelId, address receiver, uint32 settlingPeriod) public payable {\n        channels[channelId] = PaymentChannel({\n            sender: msg.sender,\n            receiver: receiver,\n            value: msg.value,\n            settlingPeriod: settlingPeriod,\n            settlingUntil: 0\n        });\n\n        DidOpen(channelId);\n    }\n\n    function canDeposit(bytes32 channelId, address origin) public view returns(bool) {\n        var channel = channels[channelId];\n        bool isSender = channel.sender == origin;\n        return isOpen(channelId) && isSender;\n    }\n\n    function deposit(bytes32 channelId) public payable {\n        require(canDeposit(channelId, msg.sender));\n\n        channels[channelId].value += msg.value;\n\n        DidDeposit(channelId, msg.value);\n    }\n\n    function canStartSettling(bytes32 channelId, address origin) public view returns(bool) {\n        var channel = channels[channelId];\n        bool isSender = channel.sender == origin;\n        return isOpen(channelId) && isSender;\n    }\n\n    function startSettling(bytes32 channelId) public {\n        require(canStartSettling(channelId, msg.sender));\n\n        var channel = channels[channelId];\n        channel.settlingUntil = block.number + channel.settlingPeriod;\n\n        DidStartSettling(channelId);\n    }\n\n    function canSettle(bytes32 channelId, address origin) public view returns(bool) {\n        var channel = channels[channelId];\n        bool isSender = channel.sender == origin;\n        bool isWaitingOver = block.number >= channel.settlingUntil && isSettling(channelId);\n        return isSender && isSettling(channelId) && isWaitingOver;\n    }\n\n    function settle(bytes32 channelId) public {\n        require(canSettle(channelId, msg.sender));\n        var channel = channels[channelId];\n        require(channel.sender.send(channel.value));\n\n        delete channels[channelId];\n        DidSettle(channelId);\n    }\n\n    function canClaim(bytes32 channelId, uint256 payment, address origin, bytes signature) public view returns(bool) {\n        var channel = channels[channelId];\n        bool isReceiver = origin == channel.receiver;\n        var hash = signatureDigest(channelId, payment);\n        bool isSigned = channel.sender == ECRecovery.recover(hash, signature);\n\n        return isReceiver && isSigned;\n    }\n\n    function claim(bytes32 channelId, uint256 payment, bytes signature) public {\n        require(canClaim(channelId, payment, msg.sender, signature));\n\n        var channel = channels[channelId];\n\n        if (payment >= channel.value) {\n            require(channel.receiver.send(channel.value));\n        } else {\n            require(channel.receiver.send(payment));\n            require(channel.sender.send(channel.value.sub(payment)));\n        }\n\n        delete channels[channelId];\n\n        DidClaim(channelId);\n    }\n\n    function isPresent(bytes32 channelId) public view returns(bool) {\n        var channel = channels[channelId];\n        return channel.sender != 0;\n    }\n\n    function isSettling(bytes32 channelId) public view returns(bool) {\n        var channel = channels[channelId];\n        return channel.settlingUntil != 0;\n    }\n\n    function isOpen(bytes32 channelId) public view returns(bool) {\n        return isPresent(channelId) && !isSettling(channelId);\n    }\n\n    function paymentDigest(bytes32 channelId, uint256 payment) public view returns(bytes32) {\n        return keccak256(address(this), channelId, payment);\n    }\n\n    function signatureDigest(bytes32 channelId, uint256 payment) public view returns(bytes32) {\n        bytes memory prefix = \"\\x19Ethereum Signed Message:\\n32\";\n        return keccak256(prefix, paymentDigest(channelId, payment));\n    }\n}\n",
  "sourcePath": "/Users/ukstv/Documents/Pro/Machinomy/machinomy-contracts/contracts/Unidirectional.sol",
  "compiler": {
    "name": "solc",
    "version": "0.4.18+commit.9cf6e910.Emscripten.clang"
  },
  "schemaVersion": "1.0.1",
  "updatedAt": "2018-01-21T05:04:01.354Z"
}