{
  "contractName": "Unidirectional",
  "abi": [
    {
      "constant": true,
      "inputs": [
        {
          "name": "",
          "type": "bytes32"
        }
      ],
      "name": "channels",
      "outputs": [
        {
          "name": "sender",
          "type": "address"
        },
        {
          "name": "receiver",
          "type": "address"
        },
        {
          "name": "value",
          "type": "uint256"
        },
        {
          "name": "settlingPeriod",
          "type": "uint32"
        },
        {
          "name": "settlingUntil",
          "type": "uint256"
        }
      ],
      "payable": false,
      "stateMutability": "view",
      "type": "function"
    },
    {
      "anonymous": false,
      "inputs": [
        {
          "indexed": true,
          "name": "channelId",
          "type": "bytes32"
        },
        {
          "indexed": true,
          "name": "sender",
          "type": "address"
        },
        {
          "indexed": true,
          "name": "receiver",
          "type": "address"
        },
        {
          "indexed": false,
          "name": "value",
          "type": "uint256"
        }
      ],
      "name": "DidOpen",
      "type": "event"
    },
    {
      "anonymous": false,
      "inputs": [
        {
          "indexed": true,
          "name": "channelId",
          "type": "bytes32"
        },
        {
          "indexed": false,
          "name": "deposit",
          "type": "uint256"
        }
      ],
      "name": "DidDeposit",
      "type": "event"
    },
    {
      "anonymous": false,
      "inputs": [
        {
          "indexed": true,
          "name": "channelId",
          "type": "bytes32"
        }
      ],
      "name": "DidClaim",
      "type": "event"
    },
    {
      "anonymous": false,
      "inputs": [
        {
          "indexed": true,
          "name": "channelId",
          "type": "bytes32"
        }
      ],
      "name": "DidStartSettling",
      "type": "event"
    },
    {
      "anonymous": false,
      "inputs": [
        {
          "indexed": true,
          "name": "channelId",
          "type": "bytes32"
        }
      ],
      "name": "DidSettle",
      "type": "event"
    },
    {
      "constant": false,
      "inputs": [
        {
          "name": "channelId",
          "type": "bytes32"
        },
        {
          "name": "receiver",
          "type": "address"
        },
        {
          "name": "settlingPeriod",
          "type": "uint32"
        }
      ],
      "name": "open",
      "outputs": [],
      "payable": true,
      "stateMutability": "payable",
      "type": "function"
    },
    {
      "constant": true,
      "inputs": [
        {
          "name": "channelId",
          "type": "bytes32"
        },
        {
          "name": "origin",
          "type": "address"
        }
      ],
      "name": "canDeposit",
      "outputs": [
        {
          "name": "",
          "type": "bool"
        }
      ],
      "payable": false,
      "stateMutability": "view",
      "type": "function"
    },
    {
      "constant": false,
      "inputs": [
        {
          "name": "channelId",
          "type": "bytes32"
        }
      ],
      "name": "deposit",
      "outputs": [],
      "payable": true,
      "stateMutability": "payable",
      "type": "function"
    },
    {
      "constant": true,
      "inputs": [
        {
          "name": "channelId",
          "type": "bytes32"
        },
        {
          "name": "origin",
          "type": "address"
        }
      ],
      "name": "canStartSettling",
      "outputs": [
        {
          "name": "",
          "type": "bool"
        }
      ],
      "payable": false,
      "stateMutability": "view",
      "type": "function"
    },
    {
      "constant": false,
      "inputs": [
        {
          "name": "channelId",
          "type": "bytes32"
        }
      ],
      "name": "startSettling",
      "outputs": [],
      "payable": false,
      "stateMutability": "nonpayable",
      "type": "function"
    },
    {
      "constant": true,
      "inputs": [
        {
          "name": "channelId",
          "type": "bytes32"
        }
      ],
      "name": "canSettle",
      "outputs": [
        {
          "name": "",
          "type": "bool"
        }
      ],
      "payable": false,
      "stateMutability": "view",
      "type": "function"
    },
    {
      "constant": false,
      "inputs": [
        {
          "name": "channelId",
          "type": "bytes32"
        }
      ],
      "name": "settle",
      "outputs": [],
      "payable": false,
      "stateMutability": "nonpayable",
      "type": "function"
    },
    {
      "constant": true,
      "inputs": [
        {
          "name": "channelId",
          "type": "bytes32"
        },
        {
          "name": "payment",
          "type": "uint256"
        },
        {
          "name": "origin",
          "type": "address"
        },
        {
          "name": "signature",
          "type": "bytes"
        }
      ],
      "name": "canClaim",
      "outputs": [
        {
          "name": "",
          "type": "bool"
        }
      ],
      "payable": false,
      "stateMutability": "view",
      "type": "function"
    },
    {
      "constant": false,
      "inputs": [
        {
          "name": "channelId",
          "type": "bytes32"
        },
        {
          "name": "payment",
          "type": "uint256"
        },
        {
          "name": "signature",
          "type": "bytes"
        }
      ],
      "name": "claim",
      "outputs": [],
      "payable": false,
      "stateMutability": "nonpayable",
      "type": "function"
    },
    {
      "constant": true,
      "inputs": [
        {
          "name": "channelId",
          "type": "bytes32"
        }
      ],
      "name": "isPresent",
      "outputs": [
        {
          "name": "",
          "type": "bool"
        }
      ],
      "payable": false,
      "stateMutability": "view",
      "type": "function"
    },
    {
      "constant": true,
      "inputs": [
        {
          "name": "channelId",
          "type": "bytes32"
        }
      ],
      "name": "isAbsent",
      "outputs": [
        {
          "name": "",
          "type": "bool"
        }
      ],
      "payable": false,
      "stateMutability": "view",
      "type": "function"
    },
    {
      "constant": true,
      "inputs": [
        {
          "name": "channelId",
          "type": "bytes32"
        }
      ],
      "name": "isSettling",
      "outputs": [
        {
          "name": "",
          "type": "bool"
        }
      ],
      "payable": false,
      "stateMutability": "view",
      "type": "function"
    },
    {
      "constant": true,
      "inputs": [
        {
          "name": "channelId",
          "type": "bytes32"
        }
      ],
      "name": "isOpen",
      "outputs": [
        {
          "name": "",
          "type": "bool"
        }
      ],
      "payable": false,
      "stateMutability": "view",
      "type": "function"
    },
    {
      "constant": true,
      "inputs": [
        {
          "name": "channelId",
          "type": "bytes32"
        },
        {
          "name": "payment",
          "type": "uint256"
        }
      ],
      "name": "paymentDigest",
      "outputs": [
        {
          "name": "",
          "type": "bytes32"
        }
      ],
      "payable": false,
      "stateMutability": "view",
      "type": "function"
    }
  ],
  "bytecode": "0x6060604052341561000f57600080fd5b610d9e8061001e6000396000f3006060604052600436106100d95763ffffffff7c0100000000000000000000000000000000000000000000000000000000600035041662f31e7681146100de5780632f8f0c921461010857806341b6fcf71461012a5780634722361c1461010857806360546602146101555780636683f9ae1461016b5780637964ea87146101815780637a7ebd7b146101df5780637c35be7a14610235578063987757dd1461024b578063ad37908914610261578063b214faa514610277578063ba6cc6c314610282578063e62eea47146102a2578063ec8be5b9146102b8575b600080fd5b34156100e957600080fd5b6100f4600435610320565b604051901515815260200160405180910390f35b341561011357600080fd5b6100f4600435600160a060020a0360243516610332565b341561013557600080fd5b6101436004356024356103c7565b60405190815260200160405180910390f35b341561016057600080fd5b6100f460043561040c565b341561017657600080fd5b6100f4600435610486565b341561018c57600080fd5b6101dd600480359060248035919060649060443590810190830135806020601f820181900481020160405190810160405281815292919060208401838380828437509496506104fa95505050505050565b005b34156101ea57600080fd5b6101f56004356106c3565b604051600160a060020a03958616815293909416602084015260408084019290925263ffffffff166060830152608082019290925260a001905180910390f35b341561024057600080fd5b6100f4600435610705565b341561025657600080fd5b6101dd600435610726565b341561026c57600080fd5b6100f460043561080c565b6101dd6004356108a7565b6101dd600435600160a060020a036024351663ffffffff6044351661090f565b34156102ad57600080fd5b6101dd600435610a46565b34156102c357600080fd5b6100f460048035906024803591600160a060020a03604435169160849060643590810190830135806020601f82018190048102016040519081016040528181529291906020840183838082843750949650610ab295505050505050565b600061032b8261040c565b1592915050565b600061033c610d32565b6000848152602081905260408082209060a0905190810160409081528254600160a060020a039081168352600184015481166020840152600284015491830191909152600383015463ffffffff1660608301526004909201546080820152925084168251600160a060020a03161490506103b585610705565b80156103be5750805b95945050505050565b6000308383604051600160a060020a03939093166c01000000000000000000000000028352601483019190915260348201526054016040518091039020905092915050565b6000610416610d32565b600083815260208190526040908190209060a0905190810160409081528254600160a060020a0390811683526001840154166020830152600283015490820152600382015463ffffffff166060820152600490910154608082015290508051600160a060020a0316159392505050565b6000610490610d32565b600083815260208190526040908190209060a0905190810160409081528254600160a060020a0390811683526001840154166020830152600283015490820152600382015463ffffffff166060820152600490910154608082019081529091505115159392505050565b610502610d32565b61050e84843385610ab2565b151561051957600080fd5b600084815260208190526040908190209060a0905190810160409081528254600160a060020a03908116835260018401541660208301526002830154908201908152600383015463ffffffff166060830152600490920154608082015291505183106105bf578060200151600160a060020a03166108fc82604001519081150290604051600060405180830381858888f1935050505015156105ba57600080fd5b61063c565b8060200151600160a060020a031683156108fc0284604051600060405180830381858888f1935050505015156105f457600080fd5b8051600160a060020a03166108fc6106178584604001519063ffffffff610c6c16565b9081150290604051600060405180830381858888f19350505050151561063c57600080fd5b600084815260208190526040808220805473ffffffffffffffffffffffffffffffffffffffff19908116825560018201805490911690556002810183905560038101805463ffffffff191690556004019190915584907f3de43c9e481138453c3cfea2781e18a609abb6448556669b257edc7de710fd64905160405180910390a250505050565b60006020819052908152604090208054600182015460028301546003840154600490940154600160a060020a03938416949290931692909163ffffffff169085565b600061071082610320565b8015610720575061032b82610486565b92915050565b60006107318261080c565b151561073c57600080fd5b5060008181526020819052604090819020805460028201549192600160a060020a039091169180156108fc029151600060405180830381858888f19350505050151561078757600080fd5b600082815260208190526040808220805473ffffffffffffffffffffffffffffffffffffffff19908116825560018201805490911690556002810183905560038101805463ffffffff191690556004019190915582907f74fb75c3de2cff5e8a78cf9b1f49a5bea60126b42ed45bb4b2b25b7da03e4d1b905160405180910390a25050565b6000610816610d32565b6000838152602081905260408082209060a0905190810160409081528254600160a060020a0390811683526001840154166020830152600283015490820152600382015463ffffffff1660608201526004909101546080820152915061087b84610486565b801561088b575081608001514310155b905061089684610486565b801561089f5750805b949350505050565b6108b18133610332565b15156108bc57600080fd5b6000818152602081905260409081902060020180543490810190915582917f6f850cda6d6b2f5cca622bc2d4739e4ed917c12d29f9a92b9e6c127abe39842491905190815260200160405180910390a250565b6109188361040c565b151561092357600080fd5b60a06040519081016040908152600160a060020a0333811683528416602080840191909152348284015263ffffffff8416606084015260006080840181905286815290819052208151815473ffffffffffffffffffffffffffffffffffffffff1916600160a060020a0391909116178155602082015160018201805473ffffffffffffffffffffffffffffffffffffffff1916600160a060020a039290921691909117905560408201518160020155606082015160038201805463ffffffff191663ffffffff92909216919091179055608082015160049091015550600160a060020a03808316903316847f2f7cfc632227c054da7caaf75268353dba6206f53e9f7a547a193e66ab8c94dc3460405190815260200160405180910390a4505050565b6000610a528233610332565b1515610a5d57600080fd5b5060008181526020819052604090819020600381015463ffffffff16430160048201559082907fd6461a3a92fd600fe23f236b2e25c2fd0c197a66b2f990989f0b210d578f4617905160405180910390a25050565b6000610abc610d32565b600086815260208190526040808220829182919060a0905190810160409081528254600160a060020a03908116835260018401541660208301908152600284015491830191909152600383015463ffffffff1660608301526004909201546080820152945051600160a060020a031687600160a060020a0316149250610b428989610c7e565b915073__ECRecovery____________________________6319045a2583886000604051602001526040517c010000000000000000000000000000000000000000000000000000000063ffffffff851602815260048101838152604060248301908152909160440183818151815260200191508051906020019080838360005b83811015610bd9578082015183820152602001610bc1565b50505050905090810190601f168015610c065780820380516001836020036101000a031916815260200191505b50935050505060206040518083038186803b1515610c2357600080fd5b6102c65a03f41515610c3457600080fd5b5050506040518051600160a060020a031690508451600160a060020a0316149050828015610c5f5750805b9998505050505050505050565b600082821115610c7857fe5b50900390565b6000610c88610d60565b60408051908101604052601c81527f19457468657265756d205369676e6564204d6573736167653a0a3332000000006020820152905080610cc985856103c7565b6040518083805190602001908083835b60208310610cf85780518252601f199092019160209182019101610cd9565b6001836020036101000a03801982511681845116179092525050509190910192835250506020019050604051809103902091505092915050565b60a0604051908101604090815260008083526020830181905290820181905260608201819052608082015290565b602060405190810160405260008152905600a165627a7a7230582054107390e3abdedc00b3ae8b66039c130a5995a3ce03c1875e71bb0084435c460029",
  "source": "pragma solidity ^0.4.19;\n\nimport \"zeppelin-solidity/contracts/math/SafeMath.sol\";\nimport \"zeppelin-solidity/contracts/ECRecovery.sol\";\n\n\n/// @title Unidirectional Ether payment channels contract.\ncontract Unidirectional {\n    using SafeMath for uint256;\n\n    struct PaymentChannel {\n        address sender;\n        address receiver;\n        uint256 value; // Total amount of money deposited to the channel.\n\n        uint32 settlingPeriod; // How many blocks to wait for the receiver to claim her funds, after sender starts settling.\n        uint256 settlingUntil; // Starting with this block number, anyone can settle the channel.\n    }\n\n    mapping (bytes32 => PaymentChannel) public channels;\n\n    event DidOpen(bytes32 indexed channelId, address indexed sender, address indexed receiver, uint256 value);\n    event DidDeposit(bytes32 indexed channelId, uint256 deposit);\n    event DidClaim(bytes32 indexed channelId);\n    event DidStartSettling(bytes32 indexed channelId);\n    event DidSettle(bytes32 indexed channelId);\n\n    /*** ACTIONS AND CONSTRAINTS ***/\n\n    /// @notice Open a new channel between `msg.sender` and `receiver`, and do an initial deposit to the channel.\n    /// @param channelId Unique identifier of the channel to be created.\n    /// @param receiver Receiver of the funds, counter-party of `msg.sender`.\n    /// @param settlingPeriod Number of blocks to wait for receiver to `claim` her funds after the sender starts settling period (see `startSettling`).\n    /// After that period is over anyone could call `settle`, and move all the channel funds to the sender.\n    function open(bytes32 channelId, address receiver, uint32 settlingPeriod) public payable {\n        require(isAbsent(channelId));\n\n        channels[channelId] = PaymentChannel({\n            sender: msg.sender,\n            receiver: receiver,\n            value: msg.value,\n            settlingPeriod: settlingPeriod,\n            settlingUntil: 0\n        });\n\n        DidOpen(channelId, msg.sender, receiver, msg.value);\n    }\n\n    /// @notice Ensure `origin` address can deposit money into the channel identified by `channelId`.\n    /// @dev Constraint `deposit` call.\n    /// @param channelId Identifier of the channel.\n    /// @param origin Caller of `deposit` function.\n    function canDeposit(bytes32 channelId, address origin) public view returns(bool) {\n        PaymentChannel memory channel = channels[channelId];\n        bool isSender = channel.sender == origin;\n        return isOpen(channelId) && isSender;\n    }\n\n    /// @notice Add more money to the contract.\n    /// @param channelId Identifier of the channel.\n    function deposit(bytes32 channelId) public payable {\n        require(canDeposit(channelId, msg.sender));\n\n        channels[channelId].value += msg.value;\n\n        DidDeposit(channelId, msg.value);\n    }\n\n    /// @notice Ensure `origin` address can start settling the channel identified by `channelId`.\n    /// @dev Constraint `startSettling` call.\n    /// @param channelId Identifier of the channel.\n    /// @param origin Caller of `startSettling` function.\n    function canStartSettling(bytes32 channelId, address origin) public view returns(bool) {\n        PaymentChannel memory channel = channels[channelId];\n        bool isSender = channel.sender == origin;\n        return isOpen(channelId) && isSender;\n    }\n\n    /// @notice Sender initiates settling of the contract.\n    /// @dev Actually set `settlingUntil` field of the PaymentChannel structure.\n    /// @param channelId Identifier of the channel.\n    function startSettling(bytes32 channelId) public {\n        require(canStartSettling(channelId, msg.sender));\n\n        PaymentChannel storage channel = channels[channelId];\n        channel.settlingUntil = block.number + channel.settlingPeriod;\n\n        DidStartSettling(channelId);\n    }\n\n    /// @notice Ensure one can settle the channel identified by `channelId`.\n    /// @dev Check if settling period is over by comparing `settlingUntil` to a current block number.\n    /// @param channelId Identifier of the channel.\n    function canSettle(bytes32 channelId) public view returns(bool) {\n        PaymentChannel memory channel = channels[channelId];\n        bool isWaitingOver = isSettling(channelId) && block.number >= channel.settlingUntil;\n        return isSettling(channelId) && isWaitingOver;\n    }\n\n    /// @notice Move the money to sender, and close the channel.\n    /// After the settling period is over, and receiver has not claimed the funds, anyone could call that.\n    /// @param channelId Identifier of the channel.\n    function settle(bytes32 channelId) public {\n        require(canSettle(channelId));\n        PaymentChannel storage channel = channels[channelId];\n        channel.sender.transfer(channel.value);\n\n        delete channels[channelId];\n        DidSettle(channelId);\n    }\n\n    /// @notice Ensure `origin` address can claim `payment` amount on channel identified by `channelId`.\n    /// @dev Check if `signature` is made by sender part of the channel, and is for payment promise (see `paymentDigest`).\n    /// @param channelId Identifier of the channel.\n    /// @param payment Amount claimed.\n    /// @param origin Caller of `claim` function.\n    /// @param signature Signature for the payment promise.\n    function canClaim(bytes32 channelId, uint256 payment, address origin, bytes signature) public view returns(bool) {\n        PaymentChannel memory channel = channels[channelId];\n        bool isReceiver = origin == channel.receiver;\n        bytes32 hash = recoveryPaymentDigest(channelId, payment);\n        bool isSigned = channel.sender == ECRecovery.recover(hash, signature);\n\n        return isReceiver && isSigned;\n    }\n\n    /// @notice Claim the funds, and close the channel.\n    /// @dev Can be claimed by channel receiver only. Guarded by `canClaim`.\n    /// @param channelId Identifier of the channel.\n    /// @param payment Amount claimed.\n    /// @param signature Signature for the payment promise.\n    function claim(bytes32 channelId, uint256 payment, bytes signature) public {\n        require(canClaim(channelId, payment, msg.sender, signature));\n\n        PaymentChannel memory channel = channels[channelId];\n\n        if (payment >= channel.value) {\n            channel.receiver.transfer(channel.value);\n        } else {\n            channel.receiver.transfer(payment);\n            channel.sender.transfer(channel.value.sub(payment));\n        }\n\n        delete channels[channelId];\n\n        DidClaim(channelId);\n    }\n\n    /*** CHANNEL STATE ***/\n\n    /// @notice Check if the channel is present: in open or settling state.\n    /// @param channelId Identifier of the channel.\n    function isPresent(bytes32 channelId) public view returns(bool) {\n        return !isAbsent(channelId);\n    }\n\n    /// @notice Check if the channel is not present.\n    /// @param channelId Identifier of the channel.\n    function isAbsent(bytes32 channelId) public view returns(bool) {\n        PaymentChannel memory channel = channels[channelId];\n        return channel.sender == 0;\n    }\n\n    /// @notice Check if the channel is in settling state: waits till the settling period is over.\n    /// @dev It is settling, if `settlingUntil` is set to non-zero.\n    /// @param channelId Identifier of the channel.\n    function isSettling(bytes32 channelId) public view returns(bool) {\n        PaymentChannel memory channel = channels[channelId];\n        return channel.settlingUntil != 0;\n    }\n\n    /// @notice Check if the channel is open: present and not settling.\n    /// @param channelId Identifier of the channel.\n    function isOpen(bytes32 channelId) public view returns(bool) {\n        return isPresent(channelId) && !isSettling(channelId);\n    }\n\n    /*** PAYMENT DIGEST ***/\n\n    /// @return Hash of the payment promise to sign.\n    /// @param channelId Identifier of the channel.\n    /// @param payment Amount to send, and to claim later.\n    function paymentDigest(bytes32 channelId, uint256 payment) public view returns(bytes32) {\n        return keccak256(address(this), channelId, payment);\n    }\n\n    /// @return Actually signed hash of the payment promise, considering \"Ethereum Signed Message\" prefix.\n    /// @param channelId Identifier of the channel.\n    /// @param payment Amount to send, and to claim later.\n    function recoveryPaymentDigest(bytes32 channelId, uint256 payment) internal view returns(bytes32) {\n        bytes memory prefix = \"\\x19Ethereum Signed Message:\\n32\";\n        return keccak256(prefix, paymentDigest(channelId, payment));\n    }\n}\n",
  "sourcePath": "/Users/ukstv/Documents/Pro/Machinomy/machinomy-contracts/contracts/Unidirectional.sol",
  "compiler": {
    "name": "solc",
    "version": "0.4.19+commit.c4cbbb05.Emscripten.clang"
  },
  "schemaVersion": "1.0.1",
  "updatedAt": "2018-03-04T02:34:39.525Z"
}