{
  "contractName": "UnidirectionalCF",
  "abi": [
    {
      "inputs": [
        {
          "name": "_multisig",
          "type": "address"
        },
        {
          "name": "_registry",
          "type": "address"
        },
        {
          "name": "_settlementPeriod",
          "type": "uint32"
        }
      ],
      "payable": true,
      "stateMutability": "payable",
      "type": "constructor"
    },
    {
      "payable": true,
      "stateMutability": "payable",
      "type": "fallback"
    },
    {
      "constant": false,
      "inputs": [
        {
          "name": "_id",
          "type": "bytes32"
        }
      ],
      "name": "setId",
      "outputs": [],
      "payable": false,
      "stateMutability": "nonpayable",
      "type": "function"
    },
    {
      "constant": true,
      "inputs": [],
      "name": "canSettle",
      "outputs": [
        {
          "name": "",
          "type": "bool"
        }
      ],
      "payable": false,
      "stateMutability": "view",
      "type": "function"
    },
    {
      "constant": false,
      "inputs": [],
      "name": "settle",
      "outputs": [],
      "payable": false,
      "stateMutability": "nonpayable",
      "type": "function"
    },
    {
      "constant": true,
      "inputs": [
        {
          "name": "payment",
          "type": "uint256"
        },
        {
          "name": "origin",
          "type": "address"
        },
        {
          "name": "signature",
          "type": "bytes"
        }
      ],
      "name": "canWithdraw",
      "outputs": [
        {
          "name": "",
          "type": "bool"
        }
      ],
      "payable": false,
      "stateMutability": "view",
      "type": "function"
    },
    {
      "constant": false,
      "inputs": [
        {
          "name": "payment",
          "type": "uint256"
        },
        {
          "name": "signature",
          "type": "bytes"
        }
      ],
      "name": "withdraw",
      "outputs": [],
      "payable": false,
      "stateMutability": "nonpayable",
      "type": "function"
    },
    {
      "constant": true,
      "inputs": [],
      "name": "isSettling",
      "outputs": [
        {
          "name": "",
          "type": "bool"
        }
      ],
      "payable": false,
      "stateMutability": "view",
      "type": "function"
    },
    {
      "constant": true,
      "inputs": [],
      "name": "isOpen",
      "outputs": [
        {
          "name": "",
          "type": "bool"
        }
      ],
      "payable": false,
      "stateMutability": "view",
      "type": "function"
    },
    {
      "constant": true,
      "inputs": [
        {
          "name": "payment",
          "type": "uint256"
        }
      ],
      "name": "paymentDigest",
      "outputs": [
        {
          "name": "",
          "type": "bytes32"
        }
      ],
      "payable": false,
      "stateMutability": "view",
      "type": "function"
    }
  ],
  "bytecode": "0x606060405260405160608061071c83398101604052808051919060200180519190602001805160008054600160a060020a03968716600160a060020a0319918216179091556001805495909616941693909317909355504363ffffffff90911601600255506106a9806100736000396000f3006060604052600436106100745763ffffffff60e060020a600035041663030ba25d811461007657806311da60b4146100cc57806347535d7b146100df57806349bfcf0214610106578063574dba5e1461011c57806396f25d4214610181578063c92c9e5214610194578063faf7ba6a146101bc575b005b341561008157600080fd5b610074600480359060446024803590810190830135806020601f820181900481020160405190810160405281815292919060208401838380828437509496506101cf95505050505050565b34156100d757600080fd5b6100746102fa565b34156100ea57600080fd5b6100f2610356565b604051901515815260200160405180910390f35b341561011157600080fd5b610074600435610366565b341561012757600080fd5b6100f2600480359060248035600160a060020a0316919060649060443590810190830135806020601f8201819004810201604051908101604052818152929190602084018383808284375094965061037895505050505050565b341561018c57600080fd5b6100f261056d565b341561019f57600080fd5b6101aa600435610575565b60405190815260200160405180910390f35b34156101c757600080fd5b6100f2610599565b6101da823383610378565b15156101e557600080fd5b30600160a060020a03163182101561028b5760008054600160a060020a03169063f7260d3e90604051602001526040518163ffffffff1660e060020a028152600401602060405180830381600087803b151561024057600080fd5b6102c65a03f1151561025157600080fd5b5050506040518051600160a060020a0316905082156108fc0283604051600060405180830381858888f19350505050151561028b57600080fd5b60008054600160a060020a03169063f7260d3e90604051602001526040518163ffffffff1660e060020a028152600401602060405180830381600087803b15156102d457600080fd5b6102c65a03f115156102e557600080fd5b50505060405180519050600160a060020a0316ff5b610302610599565b151561030d57600080fd5b60008054600160a060020a0316906367e404ce90604051602001526040518163ffffffff1660e060020a028152600401602060405180830381600087803b15156102d457600080fd5b600061036061056d565b15905090565b6003541561037357600080fd5b600355565b60008054819081908190600160a060020a031663f7260d3e82604051602001526040518163ffffffff1660e060020a028152600401602060405180830381600087803b15156103c657600080fd5b6102c65a03f115156103d757600080fd5b50505060405180519050600160a060020a031686600160a060020a0316149250610400876105b9565b915073__ECRecovery____________________________6319045a25838760006040516020015260405160e060020a63ffffffff851602815260048101838152604060248301908152909160440183818151815260200191508051906020019080838360005b8381101561047e578082015183820152602001610466565b50505050905090810190601f1680156104ab5780820380516001836020036101000a031916815260200191505b50935050505060206040518083038186803b15156104c857600080fd5b6102c65a03f415156104d957600080fd5b505050604051805160008054600160a060020a039283169350909116906367e404ce90604051602001526040518163ffffffff1660e060020a028152600401602060405180830381600087803b151561053157600080fd5b6102c65a03f1151561054257600080fd5b50505060405180519050600160a060020a03161490508280156105625750805b979650505050505050565b600254151590565b60006003548260405191825260208201526040908101905180910390209050919050565b6002546000904310156105aa61056d565b80156105b35750805b91505090565b60006105c361066b565b60408051908101604052601c81527f19457468657265756d205369676e6564204d6573736167653a0a333200000000602082015290508061060384610575565b6040518083805190602001908083835b602083106106325780518252601f199092019160209182019101610613565b6001836020036101000a038019825116818451161790925250505091909101928352505060200190506040518091039020915050919050565b602060405190810160405260008152905600a165627a7a72305820ec52bd4b9bfa9af387ada24a9f777cda980268996cd990884212df8df5613c310029",
  "source": "pragma solidity ^0.4.19;\n\nimport \"zeppelin-solidity/contracts/math/SafeMath.sol\";\nimport \"zeppelin-solidity/contracts/ECRecovery.sol\";\nimport \"./Multisig.sol\";\nimport \"./IRegistry.sol\";\nimport \"./ICounterfactual.sol\";\n\n/// @title Unidirectional Ether payment channels contract.\ncontract UnidirectionalCF is ICounterfactual {\n    using SafeMath for uint256;\n\n    Multisig multisig;\n    IRegistry registry;\n    uint256 settlingUntil;\n\n    bytes32 id;\n\n    function UnidirectionalCF(address _multisig, address _registry, uint32 _settlementPeriod) public payable {\n        multisig = Multisig(_multisig);\n        registry = IRegistry(_registry);\n        settlingUntil = block.number + _settlementPeriod;\n    }\n\n    function () payable public {}\n\n    function setId(bytes32 _id) public {\n        require(id == bytes32(0x0));\n        id = _id;\n    }\n\n    function canSettle() public view returns(bool) {\n        bool isWaitingOver = block.number >= settlingUntil;\n        return isSettling() && isWaitingOver;\n    }\n\n    function settle() public {\n        require(canSettle());\n        selfdestruct(multisig.sender());\n    }\n\n    function canWithdraw(uint256 payment, address origin, bytes signature) public view returns(bool) {\n        bool isReceiver = origin == multisig.receiver();\n        bytes32 hash = recoveryPaymentDigest(payment);\n        bool isSigned = multisig.sender() == ECRecovery.recover(hash, signature);\n\n        return isReceiver && isSigned;\n    }\n\n    function withdraw(uint256 payment, bytes signature) public {\n        require(canWithdraw(payment, msg.sender, signature));\n\n        if (payment < this.balance) {\n            multisig.receiver().transfer(payment);\n        }\n\n        selfdestruct(multisig.receiver());\n    }\n\n    /*** CHANNEL STATE ***/\n\n    function isSettling() public view returns(bool) {\n        return settlingUntil != 0;\n    }\n\n    function isOpen() public view returns(bool) {\n        return !isSettling();\n    }\n\n    function paymentDigest(uint256 payment) public view returns(bytes32) {\n        return keccak256(id, payment);\n    }\n\n    function recoveryPaymentDigest(uint256 payment) internal view returns(bytes32) {\n        bytes memory prefix = \"\\x19Ethereum Signed Message:\\n32\";\n        return keccak256(prefix, paymentDigest(payment));\n    }\n}\n",
  "sourcePath": "/Users/ukstv/Documents/Pro/Machinomy/machinomy-contracts/contracts/UnidirectionalCF.sol",
  "compiler": {
    "name": "solc",
    "version": "0.4.19+commit.c4cbbb05.Emscripten.clang"
  },
  "schemaVersion": "2.0.0",
  "updatedAt": "2018-03-05T02:11:58.098Z"
}