{
  "contractName": "Unidirectional",
  "abi": [
    {
      "constant": true,
      "inputs": [
        {
          "name": "channelId",
          "type": "bytes32"
        }
      ],
      "name": "isPresent",
      "outputs": [
        {
          "name": "",
          "type": "bool"
        }
      ],
      "payable": false,
      "stateMutability": "view",
      "type": "function"
    },
    {
      "constant": true,
      "inputs": [
        {
          "name": "channelId",
          "type": "bytes32"
        },
        {
          "name": "origin",
          "type": "address"
        }
      ],
      "name": "canDeposit",
      "outputs": [
        {
          "name": "",
          "type": "bool"
        }
      ],
      "payable": false,
      "stateMutability": "view",
      "type": "function"
    },
    {
      "constant": true,
      "inputs": [
        {
          "name": "channelId",
          "type": "bytes32"
        },
        {
          "name": "payment",
          "type": "uint256"
        }
      ],
      "name": "paymentDigest",
      "outputs": [
        {
          "name": "",
          "type": "bytes32"
        }
      ],
      "payable": false,
      "stateMutability": "view",
      "type": "function"
    },
    {
      "constant": true,
      "inputs": [
        {
          "name": "channelId",
          "type": "bytes32"
        },
        {
          "name": "origin",
          "type": "address"
        }
      ],
      "name": "canStartSettling",
      "outputs": [
        {
          "name": "",
          "type": "bool"
        }
      ],
      "payable": false,
      "stateMutability": "view",
      "type": "function"
    },
    {
      "constant": true,
      "inputs": [
        {
          "name": "channelId",
          "type": "bytes32"
        }
      ],
      "name": "isAbsent",
      "outputs": [
        {
          "name": "",
          "type": "bool"
        }
      ],
      "payable": false,
      "stateMutability": "view",
      "type": "function"
    },
    {
      "constant": true,
      "inputs": [
        {
          "name": "channelId",
          "type": "bytes32"
        }
      ],
      "name": "isSettling",
      "outputs": [
        {
          "name": "",
          "type": "bool"
        }
      ],
      "payable": false,
      "stateMutability": "view",
      "type": "function"
    },
    {
      "constant": false,
      "inputs": [
        {
          "name": "channelId",
          "type": "bytes32"
        },
        {
          "name": "payment",
          "type": "uint256"
        },
        {
          "name": "signature",
          "type": "bytes"
        }
      ],
      "name": "claim",
      "outputs": [],
      "payable": false,
      "stateMutability": "nonpayable",
      "type": "function"
    },
    {
      "constant": true,
      "inputs": [
        {
          "name": "",
          "type": "bytes32"
        }
      ],
      "name": "channels",
      "outputs": [
        {
          "name": "sender",
          "type": "address"
        },
        {
          "name": "receiver",
          "type": "address"
        },
        {
          "name": "value",
          "type": "uint256"
        },
        {
          "name": "settlingPeriod",
          "type": "uint32"
        },
        {
          "name": "settlingUntil",
          "type": "uint256"
        }
      ],
      "payable": false,
      "stateMutability": "view",
      "type": "function"
    },
    {
      "constant": true,
      "inputs": [
        {
          "name": "channelId",
          "type": "bytes32"
        }
      ],
      "name": "isOpen",
      "outputs": [
        {
          "name": "",
          "type": "bool"
        }
      ],
      "payable": false,
      "stateMutability": "view",
      "type": "function"
    },
    {
      "constant": false,
      "inputs": [
        {
          "name": "channelId",
          "type": "bytes32"
        }
      ],
      "name": "settle",
      "outputs": [],
      "payable": false,
      "stateMutability": "nonpayable",
      "type": "function"
    },
    {
      "constant": true,
      "inputs": [
        {
          "name": "channelId",
          "type": "bytes32"
        }
      ],
      "name": "canSettle",
      "outputs": [
        {
          "name": "",
          "type": "bool"
        }
      ],
      "payable": false,
      "stateMutability": "view",
      "type": "function"
    },
    {
      "constant": false,
      "inputs": [
        {
          "name": "channelId",
          "type": "bytes32"
        }
      ],
      "name": "deposit",
      "outputs": [],
      "payable": true,
      "stateMutability": "payable",
      "type": "function"
    },
    {
      "constant": false,
      "inputs": [
        {
          "name": "channelId",
          "type": "bytes32"
        },
        {
          "name": "receiver",
          "type": "address"
        },
        {
          "name": "settlingPeriod",
          "type": "uint32"
        }
      ],
      "name": "open",
      "outputs": [],
      "payable": true,
      "stateMutability": "payable",
      "type": "function"
    },
    {
      "constant": false,
      "inputs": [
        {
          "name": "channelId",
          "type": "bytes32"
        }
      ],
      "name": "startSettling",
      "outputs": [],
      "payable": false,
      "stateMutability": "nonpayable",
      "type": "function"
    },
    {
      "constant": true,
      "inputs": [
        {
          "name": "channelId",
          "type": "bytes32"
        },
        {
          "name": "payment",
          "type": "uint256"
        },
        {
          "name": "origin",
          "type": "address"
        },
        {
          "name": "signature",
          "type": "bytes"
        }
      ],
      "name": "canClaim",
      "outputs": [
        {
          "name": "",
          "type": "bool"
        }
      ],
      "payable": false,
      "stateMutability": "view",
      "type": "function"
    },
    {
      "anonymous": false,
      "inputs": [
        {
          "indexed": true,
          "name": "channelId",
          "type": "bytes32"
        },
        {
          "indexed": true,
          "name": "sender",
          "type": "address"
        },
        {
          "indexed": true,
          "name": "receiver",
          "type": "address"
        },
        {
          "indexed": false,
          "name": "value",
          "type": "uint256"
        }
      ],
      "name": "DidOpen",
      "type": "event"
    },
    {
      "anonymous": false,
      "inputs": [
        {
          "indexed": true,
          "name": "channelId",
          "type": "bytes32"
        },
        {
          "indexed": false,
          "name": "deposit",
          "type": "uint256"
        }
      ],
      "name": "DidDeposit",
      "type": "event"
    },
    {
      "anonymous": false,
      "inputs": [
        {
          "indexed": true,
          "name": "channelId",
          "type": "bytes32"
        }
      ],
      "name": "DidClaim",
      "type": "event"
    },
    {
      "anonymous": false,
      "inputs": [
        {
          "indexed": true,
          "name": "channelId",
          "type": "bytes32"
        },
        {
          "indexed": true,
          "name": "sender",
          "type": "address"
        },
        {
          "indexed": true,
          "name": "receiver",
          "type": "address"
        }
      ],
      "name": "DidStartSettling",
      "type": "event"
    },
    {
      "anonymous": false,
      "inputs": [
        {
          "indexed": true,
          "name": "channelId",
          "type": "bytes32"
        }
      ],
      "name": "DidSettle",
      "type": "event"
    }
  ],
  "bytecode": "0x6060604052341561000f57600080fd5b6113008061001e6000396000f3006060604052600436106100da576000357c0100000000000000000000000000000000000000000000000000000000900463ffffffff168062f31e76146100df5780632f8f0c921461011e57806341b6fcf71461017c5780634722361c146101c857806360546602146102265780636683f9ae146102655780637964ea87146102a45780637a7ebd7b146103175780637c35be7a146103d2578063987757dd14610411578063ad37908914610438578063b214faa514610477578063ba6cc6c314610493578063e62eea47146104dd578063ec8be5b914610504575b600080fd5b34156100ea57600080fd5b6101046004808035600019169060200190919050506105ae565b604051808215151515815260200191505060405180910390f35b341561012957600080fd5b61016260048080356000191690602001909190803573ffffffffffffffffffffffffffffffffffffffff169060200190919050506105c1565b604051808215151515815260200191505060405180910390f35b341561018757600080fd5b6101aa600480803560001916906020019091908035906020019091905050610653565b60405180826000191660001916815260200191505060405180910390f35b34156101d357600080fd5b61020c60048080356000191690602001909190803573ffffffffffffffffffffffffffffffffffffffff169060200190919050506106c6565b604051808215151515815260200191505060405180910390f35b341561023157600080fd5b61024b600480803560001916906020019091905050610758565b604051808215151515815260200191505060405180910390f35b341561027057600080fd5b61028a6004808035600019169060200190919050506107bd565b604051808215151515815260200191505060405180910390f35b34156102af57600080fd5b61031560048080356000191690602001909190803590602001909190803590602001908201803590602001908080601f016020809104026020016040519081016040528093929190818152602001838380828437820191505050505050919050506107ed565b005b341561032257600080fd5b61033c600480803560001916906020019091905050610a44565b604051808673ffffffffffffffffffffffffffffffffffffffff1673ffffffffffffffffffffffffffffffffffffffff1681526020018573ffffffffffffffffffffffffffffffffffffffff1673ffffffffffffffffffffffffffffffffffffffff1681526020018481526020018363ffffffff1663ffffffff1681526020018281526020019550505050505060405180910390f35b34156103dd57600080fd5b6103f7600480803560001916906020019091905050610aca565b604051808215151515815260200191505060405180910390f35b341561041c57600080fd5b610436600480803560001916906020019091905050610aee565b005b341561044357600080fd5b61045d600480803560001916906020019091905050610c4f565b604051808215151515815260200191505060405180910390f35b610491600480803560001916906020019091905050610ca6565b005b6104db60048080356000191690602001909190803573ffffffffffffffffffffffffffffffffffffffff1690602001909190803563ffffffff16906020019091905050610d25565b005b34156104e857600080fd5b610502600480803560001916906020019091905050610ee9565b005b341561050f57600080fd5b61059460048080356000191690602001909190803590602001909190803573ffffffffffffffffffffffffffffffffffffffff1690602001909190803590602001908201803590602001908080601f01602080910402602001604051908101604052809392919081815260200183838082843782019150505050505091905050610fec565b604051808215151515815260200191505060405180910390f35b60006105b982610758565b159050919050565b6000806000806000866000191660001916815260200190815260200160002091508373ffffffffffffffffffffffffffffffffffffffff168260000160009054906101000a900473ffffffffffffffffffffffffffffffffffffffff1673ffffffffffffffffffffffffffffffffffffffff1614905061064085610aca565b80156106495750805b9250505092915050565b6000308383604051808473ffffffffffffffffffffffffffffffffffffffff1673ffffffffffffffffffffffffffffffffffffffff166c01000000000000000000000000028152601401836000191660001916815260200182815260200193505050506040518091039020905092915050565b6000806000806000866000191660001916815260200190815260200160002091508373ffffffffffffffffffffffffffffffffffffffff168260000160009054906101000a900473ffffffffffffffffffffffffffffffffffffffff1673ffffffffffffffffffffffffffffffffffffffff1614905061074585610aca565b801561074e5750805b9250505092915050565b6000806000808460001916600019168152602001908152602001600020905060008160000160009054906101000a900473ffffffffffffffffffffffffffffffffffffffff1673ffffffffffffffffffffffffffffffffffffffff1614915050919050565b60008060008084600019166000191681526020019081526020016000209050600081600401541415915050919050565b60006107fb84843385610fec565b151561080657600080fd5b6000808560001916600019168152602001908152602001600020905080600201548310151561089c578060010160009054906101000a900473ffffffffffffffffffffffffffffffffffffffff1673ffffffffffffffffffffffffffffffffffffffff166108fc82600201549081150290604051600060405180830381858888f19350505050151561089757600080fd5b61097b565b8060010160009054906101000a900473ffffffffffffffffffffffffffffffffffffffff1673ffffffffffffffffffffffffffffffffffffffff166108fc849081150290604051600060405180830381858888f19350505050151561090057600080fd5b8060000160009054906101000a900473ffffffffffffffffffffffffffffffffffffffff1673ffffffffffffffffffffffffffffffffffffffff166108fc6109558584600201546111e090919063ffffffff16565b9081150290604051600060405180830381858888f19350505050151561097a57600080fd5b5b6000808560001916600019168152602001908152602001600020600080820160006101000a81549073ffffffffffffffffffffffffffffffffffffffff02191690556001820160006101000a81549073ffffffffffffffffffffffffffffffffffffffff021916905560028201600090556003820160006101000a81549063ffffffff02191690556004820160009055505083600019167f3de43c9e481138453c3cfea2781e18a609abb6448556669b257edc7de710fd6460405160405180910390a250505050565b60006020528060005260406000206000915090508060000160009054906101000a900473ffffffffffffffffffffffffffffffffffffffff16908060010160009054906101000a900473ffffffffffffffffffffffffffffffffffffffff16908060020154908060030160009054906101000a900463ffffffff16908060040154905085565b6000610ad5826105ae565b8015610ae75750610ae5826107bd565b155b9050919050565b6000610af982610c4f565b1515610b0457600080fd5b600080836000191660001916815260200190815260200160002090508060000160009054906101000a900473ffffffffffffffffffffffffffffffffffffffff1673ffffffffffffffffffffffffffffffffffffffff166108fc82600201549081150290604051600060405180830381858888f193505050501515610b8857600080fd5b6000808360001916600019168152602001908152602001600020600080820160006101000a81549073ffffffffffffffffffffffffffffffffffffffff02191690556001820160006101000a81549073ffffffffffffffffffffffffffffffffffffffff021916905560028201600090556003820160006101000a81549063ffffffff02191690556004820160009055505081600019167f74fb75c3de2cff5e8a78cf9b1f49a5bea60126b42ed45bb4b2b25b7da03e4d1b60405160405180910390a25050565b60008060008060008560001916600019168152602001908152602001600020915081600401544310158015610c895750610c88846107bd565b5b9050610c94846107bd565b8015610c9d5750805b92505050919050565b610cb081336105c1565b1515610cbb57600080fd5b3460008083600019166000191681526020019081526020016000206002016000828254019250508190555080600019167f6f850cda6d6b2f5cca622bc2d4739e4ed917c12d29f9a92b9e6c127abe398424346040518082815260200191505060405180910390a250565b610d2e83610758565b1515610d3957600080fd5b60a0604051908101604052803373ffffffffffffffffffffffffffffffffffffffff1681526020018373ffffffffffffffffffffffffffffffffffffffff1681526020013481526020018263ffffffff1681526020016000815250600080856000191660001916815260200190815260200160002060008201518160000160006101000a81548173ffffffffffffffffffffffffffffffffffffffff021916908373ffffffffffffffffffffffffffffffffffffffff16021790555060208201518160010160006101000a81548173ffffffffffffffffffffffffffffffffffffffff021916908373ffffffffffffffffffffffffffffffffffffffff1602179055506040820151816002015560608201518160030160006101000a81548163ffffffff021916908363ffffffff160217905550608082015181600401559050508173ffffffffffffffffffffffffffffffffffffffff163373ffffffffffffffffffffffffffffffffffffffff1684600019167f2f7cfc632227c054da7caaf75268353dba6206f53e9f7a547a193e66ab8c94dc346040518082815260200191505060405180910390a4505050565b6000610ef582336106c6565b1515610f0057600080fd5b600080836000191660001916815260200190815260200160002090508060030160009054906101000a900463ffffffff1663ffffffff16430181600401819055508060010160009054906101000a900473ffffffffffffffffffffffffffffffffffffffff1673ffffffffffffffffffffffffffffffffffffffff168160000160009054906101000a900473ffffffffffffffffffffffffffffffffffffffff1673ffffffffffffffffffffffffffffffffffffffff1683600019167f7afa05b56c90e9be1bf71d82631ec67a0171d76eb0c455ff34d8906741a1304860405160405180910390a45050565b60008060008060008060008a6000191660001916815260200190815260200160002093508360010160009054906101000a900473ffffffffffffffffffffffffffffffffffffffff1673ffffffffffffffffffffffffffffffffffffffff168773ffffffffffffffffffffffffffffffffffffffff1614925061106f89896111f9565b915073__ECRecovery____________________________6319045a2583886000604051602001526040518363ffffffff167c010000000000000000000000000000000000000000000000000000000002815260040180836000191660001916815260200180602001828103825283818151815260200191508051906020019080838360005b8381101561110f5780820151818401526020810190506110f4565b50505050905090810190601f16801561113c5780820380516001836020036101000a031916815260200191505b50935050505060206040518083038186803b151561115957600080fd5b6102c65a03f4151561116a57600080fd5b5050506040518051905073ffffffffffffffffffffffffffffffffffffffff168460000160009054906101000a900473ffffffffffffffffffffffffffffffffffffffff1673ffffffffffffffffffffffffffffffffffffffff161490508280156111d25750805b945050505050949350505050565b60008282111515156111ee57fe5b818303905092915050565b60006112036112c0565b6040805190810160405280601c81526020017f19457468657265756d205369676e6564204d6573736167653a0a3332000000008152509050806112468585610653565b6040518083805190602001908083835b60208310151561127b5780518252602082019150602081019050602083039250611256565b6001836020036101000a038019825116818451168082178552505050505050905001826000191660001916815260200192505050604051809103902091505092915050565b6020604051908101604052806000815250905600a165627a7a723058208031ee64b198f13c39cdf2ec29d1b4b8ca79bdce0b8342224c1bc3eec36ccc0d0029",
  "source": "pragma solidity ^0.4.18;\n\nimport \"zeppelin-solidity/contracts/math/SafeMath.sol\";\nimport \"zeppelin-solidity/contracts/ECRecovery.sol\";\n\n\ncontract Unidirectional {\n    using SafeMath for uint256;\n\n    struct PaymentChannel {\n        address sender;\n        address receiver;\n        uint256 value;\n\n        uint32 settlingPeriod;\n        uint256 settlingUntil;\n    }\n\n    mapping (bytes32 => PaymentChannel) public channels;\n\n    event DidOpen(bytes32 indexed channelId, address indexed sender, address indexed receiver, uint256 value);\n    event DidDeposit(bytes32 indexed channelId, uint256 deposit);\n    event DidClaim(bytes32 indexed channelId);\n    event DidStartSettling(bytes32 indexed channelId, address indexed sender, address indexed receiver);\n    event DidSettle(bytes32 indexed channelId);\n\n    function open(bytes32 channelId, address receiver, uint32 settlingPeriod) public payable {\n        require(isAbsent(channelId));\n\n        channels[channelId] = PaymentChannel({\n            sender: msg.sender,\n            receiver: receiver,\n            value: msg.value,\n            settlingPeriod: settlingPeriod,\n            settlingUntil: 0\n        });\n\n        DidOpen(channelId, msg.sender, receiver, msg.value);\n    }\n\n    function canDeposit(bytes32 channelId, address origin) public view returns(bool) {\n        var channel = channels[channelId];\n        bool isSender = channel.sender == origin;\n        return isOpen(channelId) && isSender;\n    }\n\n    function deposit(bytes32 channelId) public payable {\n        require(canDeposit(channelId, msg.sender));\n\n        channels[channelId].value += msg.value;\n\n        DidDeposit(channelId, msg.value);\n    }\n\n    function canStartSettling(bytes32 channelId, address origin) public view returns(bool) {\n        var channel = channels[channelId];\n        bool isSender = channel.sender == origin;\n        return isOpen(channelId) && isSender;\n    }\n\n    function startSettling(bytes32 channelId) public {\n        require(canStartSettling(channelId, msg.sender));\n\n        var channel = channels[channelId];\n        channel.settlingUntil = block.number + channel.settlingPeriod;\n\n        DidStartSettling(channelId, channel.sender, channel.receiver);\n    }\n\n    function canSettle(bytes32 channelId) public view returns(bool) {\n        var channel = channels[channelId];\n        bool isWaitingOver = block.number >= channel.settlingUntil && isSettling(channelId);\n        return isSettling(channelId) && isWaitingOver;\n    }\n\n    function settle(bytes32 channelId) public {\n        require(canSettle(channelId));\n        var channel = channels[channelId];\n        require(channel.sender.send(channel.value));\n\n        delete channels[channelId];\n        DidSettle(channelId);\n    }\n\n    function canClaim(bytes32 channelId, uint256 payment, address origin, bytes signature) public view returns(bool) {\n        var channel = channels[channelId];\n        bool isReceiver = origin == channel.receiver;\n        var hash = recoveryPaymentDigest(channelId, payment);\n        bool isSigned = channel.sender == ECRecovery.recover(hash, signature);\n\n        return isReceiver && isSigned;\n    }\n\n    function claim(bytes32 channelId, uint256 payment, bytes signature) public {\n        require(canClaim(channelId, payment, msg.sender, signature));\n\n        var channel = channels[channelId];\n\n        if (payment >= channel.value) {\n            require(channel.receiver.send(channel.value));\n        } else {\n            require(channel.receiver.send(payment));\n            require(channel.sender.send(channel.value.sub(payment)));\n        }\n\n        delete channels[channelId];\n\n        DidClaim(channelId);\n    }\n\n    function isPresent(bytes32 channelId) public view returns(bool) {\n        return !isAbsent(channelId);\n    }\n\n    function isAbsent(bytes32 channelId) public view returns(bool) {\n        var channel = channels[channelId];\n        return channel.sender == 0;\n    }\n\n    function isSettling(bytes32 channelId) public view returns(bool) {\n        var channel = channels[channelId];\n        return channel.settlingUntil != 0;\n    }\n\n    function isOpen(bytes32 channelId) public view returns(bool) {\n        return isPresent(channelId) && !isSettling(channelId);\n    }\n\n    function paymentDigest(bytes32 channelId, uint256 payment) public view returns(bytes32) {\n        return keccak256(address(this), channelId, payment);\n    }\n\n    function recoveryPaymentDigest(bytes32 channelId, uint256 payment) internal view returns(bytes32) {\n        bytes memory prefix = \"\\x19Ethereum Signed Message:\\n32\";\n        return keccak256(prefix, paymentDigest(channelId, payment));\n    }\n}\n",
  "sourcePath": "/Users/ukstv/Documents/Pro/Machinomy/machinomy-contracts/contracts/Unidirectional.sol",
  "compiler": {
    "name": "solc",
    "version": "0.4.18+commit.9cf6e910.Emscripten.clang"
  },
  "schemaVersion": "1.0.1",
  "updatedAt": "2018-01-26T22:24:57.134Z"
}